:020000040800F2
:1000000000500020E50800085906000861060008B5
:100010006906000871060008790600080000000063
:100020000000000000000000000000008106000841
:100030008D0600080000000099060008A5060008CB
:100040002D0900082D0900082D0900082D090008B8
:100050002D0900082D0900082D0900082D090008A8
:100060002D0900082D0900082D0900082D09000898
:100070002D0900082D0900082D0900082D09000888
:100080002D0900082D0900082D0900082D09000878
:100090002D0900082D0900082D0900082D09000868
:1000A0002D0900082D0900082D0900082D09000858
:1000B0002D0900082D0900082D0900082D09000848
:1000C0002D0900082D0900082D0900082D09000838
:1000D0002D0900082D0900082D0900082D09000828
:1000E0002D0900082D0900082D0900080000000056
:1000F0000000000000000000000000000000000000
:0C01000000000000000000005FF808F1A3
:10010C0010B5054C237833B9044B13B10448AFF345
:10011C0000800123237010BD680000200000000047
:10012C00682B000808B5034B1BB103490348AFF318
:10013C00008008BD000000006C000020682B000847
:10014C0080B588B000AF07F1100300221A605A6026
:10015C009A60DA60384B9B69374A43F0200393610D
:10016C00354B9B6903F02003FB60FB68324B9B69AA
:10017C00314A43F0040393612F4B9B6903F0040352
:10018C00BB60BB682C4B9B692B4A43F00803936103
:10019C00294B9B6903F008037B607B68264B9B69AA
:1001AC00254A43F010039361234B9B6903F0100322
:1001BC003B603B6800224FF4A071204801F052F9DB
:1001CC0000224FF440711E4801F04CF900224021EE
:1001DC001C4801F047F94FF4A0733B6101237B618C
:1001EC000023BB610223FB6107F11003194613487E
:1001FC0000F0B4FF4FF440733B6101237B6100239B
:10020C00BB610223FB6107F1100319460C4800F097
:10021C00A5FF40233B6101237B610023BB610223CB
:10022C00FB6107F110031946064800F097FF00BF69
:10023C002037BD4680BD00BF0010024000100140B9
:10024C0000080140000C014080B500AF124B134A6E
:10025C001A60114B124A5A600F4B00229A600E4BD7
:10026C000022DA600C4B4FF480421A610A4B0022D8
:10027C005A61094B00229A61074B0022DA61064B46
:10028C0000221A62044801F005F90346002B01D044
:10029C0000F0B1F800BF80BD840000200054004085
:1002AC00A086010080B58AB000AF786007F1140316
:1002BC0000221A605A609A60DA607B681B681D4ADB
:1002CC00934232D11C4B9B691B4A43F00803936148
:1002DC00194B9B6903F008033B613B694FF4407376
:1002EC007B611223BB6103233B6207F114031946A4
:1002FC00124800F033FF124B5B687B627B6A43F061
:10030C00E0637B627B6A43F002037B620C4A7B6A8C
:10031C005360094BDB69084A43F40013D361064B65
:10032C00DB6903F40013FB60FB6800BF2837BD4694
:10033C0080BD00BF0054004000100240000C014082
:10034C000000014080B500AF00F09EFD00F00EF8FB
:10035C00FFF7F6FEFFF778FF00F054F800F048FACC
:10036C0000F086F800F02EFB00BFFDE780B590B0E2
:10037C0000AF07F1180328220021184602F0EEF90D
:10038C003B1D00221A605A609A60DA601A610123E0
:10039C00BB614FF48033FB6100233B620123BB62E2
:1003AC0002237B634FF48033BB634FF4E013FB6396
:1003BC0007F11803184601F0B1F90346002B01D0E0
:1003CC0000F019F80F237B600223BB600023FB6055
:1003DC004FF480633B6100237B613B1D0221184677
:1003EC0001F01EFC0346002B01D000F004F800BF06
:1003FC004037BD4680BD80B400AF72B600BF00BFB1
:10040C00FDE7000080B500AF174B184A1A60164B79
:10041C004FF482725A60144B00229A60124B0022E5
:10042C00DA60114B00221A610F4B00225A610E4BFD
:10043C004FF400729A610C4B1022DA610A4B0022C5
:10044C001A62094B00225A62074B00229A62064B31
:10045C000A22DA62044801F071FD0346002B01D038
:10046C00FFF7C9FF00BF80BDD8000020003001405D
:10047C0080B500AF174B184A1A60164B4FF48272B6
:10048C005A60144B00229A60124B0022DA60114B16
:10049C0000221A610F4B00225A610E4B4FF400726E
:1004AC009A610C4B0022DA610A4B00221A62094B4A
:1004BC0000225A62074B00229A62064B0A22DA6229
:1004CC00044801F03BFD0346002B01D0FFF793FFDE
:1004DC0000BF80BD300100200038004080B58AB0DC
:1004EC0000AF786007F1180300221A605A609A6016
:1004FC00DA607B681B68374A934230D1364B9B6974
:10050C00354A43F480539361334B9B6903F4805316
:10051C007B617B69304B9B692F4A43F004039361E9
:10052C002D4B9B6903F004033B613B69B023BB611A
:10053C000223FB6103237B6207F11803194627484A
:10054C0000F00CFE4023BB610023FB6100233B62E7
:10055C0007F118031946214800F000FE36E07B68CD
:10056C001B681F4A934231D11B4BDB691A4A43F477
:10057C008043D361184BDB6903F48043FB60FB6859
:10058C00154B9B69144A43F008039361124B9B690A
:10059C0003F00803BB60BB684FF42043BB6102232C
:1005AC00FB6103237B6207F1180319460D4800F029
:1005BC00D5FD4FF48043BB610023FB6100233B62FC
:1005CC0007F118031946074800F0C8FD00BF28378B
:1005DC00BD4680BD003001400010024000080140C3
:1005EC0000380040000C014080B485B000AF154BC2
:1005FC009B69144A43F001039361124B9B6903F00E
:10060C000103BB60BB680F4BDB690E4A43F08053A0
:10061C00D3610C4BDB6903F080537B607B680A4B26
:10062C005B68FB60FB6823F0E063FB60FB6843F0F6
:10063C000073FB60044AFB68536000BF1437BD466F
:10064C0080BC7047001002400000014080B400AF35
:10065C0000BFFDE780B400AF00BFFDE780B400AF82
:10066C0000BFFDE780B400AF00BFFDE780B400AF72
:10067C0000BFFDE780B400AF00BFBD4680BC704733
:10068C0080B400AF00BFBD4680BC704780B400AFE3
:10069C0000BFBD4680BC704780B500AF00F03AFC8F
:1006AC0000BF80BD80B586B000AFF860B9607A60DD
:1006BC0000237B610AE0AFF300800146BB685A1C43
:1006CC00BA60CAB21A707B6901337B617A697B6844
:1006DC009A42F0DB7B6818461837BD4680BD80B562
:1006EC0086B000AFF860B9607A6000237B6109E0E6
:1006FC00BB685A1CBA601B781846AFF300807B6944
:10070C0001337B617A697B689A42F1DB7B6818461E
:10071C001837BD4680BD80B483B000AF78604FF011
:10072C00FF3318460C37BD4680BC704780B483B08D
:10073C0000AF786039603B684FF400525A60002378
:10074C0018460C37BD4680BC704780B483B000AFF0
:10075C007860012318460C37BD4680BC704780B4C6
:10076C0085B000AFF860B9607A6000231846143782
:10077C00BD4680BC7047000080B586B000AF786085
:10078C00144A154BD31A7B617B693B61134B1B6875
:10079C00002B02D1114B124A1A60104B1A687B685D
:1007AC0013443A699A4207D202F036F803460C22F7
:1007BC001A604FF0FF3309E0084B1B68FB60074BD6
:1007CC001A687B681344054A1360FB68184618378F
:1007DC00BD4680BD005000200004000088010020B0
:1007EC004003002080B400AF00BFBD4680BC704702
:1007FC0080B500AF114B124A1A60104B4FF4E13226
:10080C005A600E4B00229A600C4B0022DA600B4BA4
:10081C0000221A61094B0C225A61084B00229A6182
:10082C00064B0022DA61054801F00CFC0346002B54
:10083C0001D0FFF7E0FD00BF80BD00BF8C010020A0
:10084C000044004080B588B000AF786007F1100319
:10085C0000221A605A609A60DA607B681B681B4A37
:10086C0093422FD11A4BDB69194A43F40033D361FD
:10087C00174BDB6903F40033FB60FB68144B9B697B
:10088C00134A43F004039361114B9B6903F0040377
:10089C00BB60BB6804233B6102237B610323FB61C8
:1008AC0007F1100319460B4800F058FC08233B6174
:1008BC0000237B610023BB6107F110031946054837
:1008CC0000F04CFC00BF2037BD4680BD004400400A
:1008DC000010024000080140FFF784FF0B480C4950
:1008EC000C4A002302E0D458C4500433C4188C4280
:1008FC00F9D3094A094C002301E013600432A242E7
:10090C00FBD301F08FFFFFF71DFD704700000020A7
:10091C006800002040300008680000203C030020E4
:10092C00FEE7000080B500AF024801F037FE00235F
:10093C00184680BD802B000880B483B000AF0346FE
:10094C00FB71174B1B681A68154B1B6842F0400271
:10095C001A60144B5B68134A43F48053536000BF16
:10096C00104B9B6803F00203002BF9D00E4AFB7965
:10097C00137000BF0B4B9B6803F08003002BF9D165
:10098C0000BF084B9B6803F00103002BF9D0064B0A
:10099C001B78DBB218460C37BD4680BC704700BFD5
:1009AC00D8000020003001400C30014080B582B0EE
:1009BC0000AF7860786800F0C9FA00BF0837BD4610
:1009CC0080BD000080B584B002AF274801F0E6FD81
:1009DC00FFF7A8FF0346002B02D04FF0FF333EE099
:1009EC00224801F0DBFD00F009FA4FF4FA70FFF732
:1009FC00DDFF4FF48063FB80FB88184601F000FCA0
:100A0C0003463B603B68002B05D1194801F0C6FD3D
:100A1C004FF0FF3323E0174801F0C0FD0023009393
:100A2C005A2380224021386800F02AF8124801F03D
:100A3C00B5FD386800F078F84FF4FA70FFF7B6FFA0
:100A4C00002000F07FF80D4800F0E6F94FF4FA6052
:100A5C00FFF7ACFF002000F075F800BFF3E7184675
:100A6C000837BD4680BD00BF982B0008B02B00088E
:100A7C00C02B0008E82B0008F82B00081C2C0008E1
:100A8C0080B485B000AFF860084611461A4603469C
:100A9C007B810B463B811346FB80224B00221A6064
:100AAC00204AFB6813601F4A7B8913811D4A3B89CE
:100ABC0053811C4A3B8B93811A4B0222DA827B892D
:100ACC0003F007039BB2002B03D17B89DB089BB29D
:100ADC0004E07B89DB089BB201339BB2114A538241
:100AEC00104A3B8993820F4AFB88D3810D4B00221D
:100AFC001A82FB88002B02D0FB88B42B06D1094A42
:100B0C007B899380074A3B89D38006E0054A3B8961
:100B1C009380044A7B89D38000BF00BF1437BD4645
:100B2C0080BC7047D401002080B483B000AF7860E3
:100B3C00034A7B68136000BF0C37BD4680BC70470E
:100B4C00D401002080B489B000AF0346FB80514B28
:100B5C00DB8A022B03D04F4BDB8A042B25D10023DD
:100B6C00FB831CE00023BB8311E0BA8BFB8B494950
:100B7C00498A01FB03F31344BB60464B1A68BB68FC
:100B8C001344FA88D2B21A70BB8B0133BB83414B2E
:100B9C005B8ABA8B9A42E8D3FB8B0133FB833D4BC8
:100BAC009B8AFA8B9A42DDD36EE03A4BDB8A102B90
:100BBC002FD100237B8326E000233B831BE03A8B61
:100BCC007B8B3449498A01FB03F31344FB60FB889C
:100BDC0003F00F03FB80FB881B015AB2FB885BB24E
:100BEC00134359B22B4B1A68FB681344CAB21A70E0
:100BFC003B8B01333B83274B5B8A3A8B9A42DED388
:100C0C007B8B01337B83234B9B8A7A8B9A42D3D386
:100C1C003AE0204BDB8A412B36D10023FB822DE0BE
:100C2C000023BB8222E0BB8A5A00FB8A1949498AFD
:100C3C0001FB03F313443B61FB881B0A9BB2DAB242
:100C4C00144B19683B690B4402F00F02D2B21A70B4
:100C5C00FB88DAB20F4B19683B6901330B4402F085
:100C6C000F02D2B21A70BB8A0133BB82094B5B8A6A
:100C7C00BA8A9A42D7D3FB8A0133FB82054B9B8AF3
:100C8C00FA8A9A42CCD3FFE700BF2437BD4680BC1A
:100C9C00704700BFD401002080B500AF01224FF493
:100CAC0000710D4800F0DEFB6420FFF77FFE002290
:100CBC004FF40071084800F0D5FB6420FFF776FE76
:100CCC0001224FF40071044800F0CCFB6420FFF7C4
:100CDC006DFE00BF80BD00BF0008014080B582B032
:100CEC0000AF0346FB7100224FF480710A4800F0FC
:100CFC00B9FB00224021094800F0B4FBFB791846EF
:100D0C00FFF71AFE01224021044800F0ABFB00BFA4
:100D1C000837BD4680BD00BF00080140000C0140F3
:100D2C0080B582B000AF0346FB7101224FF4807195
:100D3C000A4800F097FB00224021094800F092FB82
:100D4C00FB791846FFF7F8FD01224021044800F01A
:100D5C0089FB00BF0837BD4680BD00BF00080140BD
:100D6C00000C014080B500AFAE20FFF7B7FF0220AA
:100D7C00FFF7B4FF1020FFF7B1FF4020FFF7AEFFE5
:100D8C008120FFF7ABFFA020FFF7A8FFC020FFF7E3
:100D9C00A5FFA620FFF7A2FFA820FFF79FFF3F208B
:100DAC00FFF79CFFD320FFF799FF0020FFF796FF7A
:100DBC00D520FFF793FF8020FFF790FFD920FFF796
:100DCC008DFFF120FFF78AFFDA20FFF787FF122053
:100DDC00FFF784FFDB20FFF781FF4020FFF77EFF4A
:100DEC002020FFF77BFF0220FFF778FFA420FFF7FE
:100DFC0075FFA620FFF772FF00BF80BD80B500AF66
:100E0C00FFF74AFFFFF7AEFFC820FFF7CFFDAF207B
:100E1C00FFF764FF00BF80BD80B584B000AF786081
:100E2C000023FB8128E0FB89DBB2503BDBB2184688
:100E3C00FFF754FF0220FFF751FF1020FFF74EFF82
:100E4C000023BB8112E0FB89C3F10702BB89DB00E5
:100E5C0013441A467B6813441B787B817B89DBB275
:100E6C001846FFF75DFFBB890133BB81BB897F2B24
:100E7C00E9D9FB890133FB81FB89072BD3D900BF4F
:100E8C0000BF1037BD4680BD80B500AF084B1B6856
:100E9C00074A43F010031360032000F02BF90F20D6
:100EAC0000F008F8FFF7A0FB0023184680BD00BF38
:100EBC000020024080B582B000AF7860124B1A68F7
:100ECC00124B1B7819464FF47A73B3FBF1F3B2FB58
:100EDC00F3F3184600F035F90346002B01D001233B
:100EEC000EE07B680F2B0AD8002279684FF0FF3098
:100EFC0000F00BF9064A7B681360002300E0012325
:100F0C0018460837BD4680BD0000002008000020B0
:100F1C000400002080B400AF054B1B781A46054B2B
:100F2C001B681344034A136000BFBD4680BC704766
:100F3C0008000020EC01002080B400AF024B1B68BD
:100F4C001846BD4680BC7047EC01002080B584B0CB
:100F5C0000AF7860FFF7F0FFB8607B68FB60FB6860
:100F6C00B3F1FF3F05D00A4B1B781A46FB681344BC
:100F7C00FB6000BFFFF7E0FF0246BB68D31AFA68BC
:100F8C009A42F7D800BF00BF1037BD4680BD00BFE6
:100F9C000800002080B485B000AF78607B6803F057
:100FAC000703FB600C4BDB68BB60BA684FF6FF03B2
:100FBC001340BB60FB681A02BB68134343F0BF636A
:100FCC0043F40033BB60044ABB68D36000BF1437E2
:100FDC00BD4680BC704700BF00ED00E080B400AFA0
:100FEC00044BDB681B0A03F007031846BD4680BCA4
:100FFC00704700BF00ED00E080B483B000AF034643
:10100C003960FB7197F90730002B0ADB3B68DAB2C9
:10101C000C4997F907301201D2B20B4483F8002324
:10102C000AE03B68DAB20849FB7903F00F03043B92
:10103C001201D2B20B441A7600BF0C37BD4680BCED
:10104C00704700BF00E100E000ED00E080B489B023
:10105C0000AFF860B9607A60FB6803F00703FB61CE
:10106C00FB69C3F10703042B28BF0423BB61FB6995
:10107C000433062B02D9FB69033B00E000237B61A0
:10108C004FF0FF32BB6902FA03F3DA43BB681A4034
:10109C007B699A404FF0FF317B6901FA03F3D94326
:1010AC007B680B40134318462437BD4680BC704701
:1010BC0080B582B000AF78607B68013BB3F1807F74
:1010CC0001D301230FE00A4A7B68013B53600F21D7
:1010DC004FF0FF30FFF790FF054B00229A60044B56
:1010EC0007221A60002318460837BD4680BD00BF92
:1010FC0010E000E080B582B000AF78607868FFF750
:10110C0049FF00BF0837BD4680BD80B586B000AF33
:10111C000346B9607A60FB7300237B61FFF75EFFC7
:10112C0078617A68B9687869FFF790FF024697F999
:10113C000F3011461846FFF75FFF00BF1837BD464A
:10114C0080BD80B582B000AF78607868FFF7B0FFE3
:10115C00034618460837BD4680BD000080B48BB0EE
:10116C0000AF7860396000237B6200233B6269E149
:10117C0001227B6A02FA03F3FB613B681B68FA6984
:10118C001340BB61BA69FB699A4240F058813B68D5
:10119C005B689A4A93425ED0984A934275D8984AB3
:1011AC00934258D0964A93426FD8964A934252D063
:1011BC00944A934269D8944A93424CD0924A9342AF
:1011CC0063D8924A934246D0904A93425DD8122BF0
:1011DC002AD8122B59D801A252F823F06312000816
:1011EC003D1200084F1200089112000897120008D7
:1011FC00971200089712000897120008971200081F
:10120C00971200089712000897120008971200080E
:10121C0097120008971200089712000897120008FE
:10122C004512000859120008794A934213D02CE059
:10123C003B68DB683B6229E03B68DB6804333B625C
:10124C0024E03B68DB6808333B621FE03B68DB68EB
:10125C000C333B621AE03B689B68002B02D10423E1
:10126C003B6213E03B689B68012B05D108233B6272
:10127C007B68FA691A6109E008233B627B68FA69AA
:10128C005A6103E000233B6200E000BFBB69FF2B07
:10129C0001D87B6801E07B6804337B61BB69FF2B61
:1012AC0002D87B6A9B0002E07B6A083B9B003B6197
:1012BC007B691A680F213B6901FA03F3DB431A407F
:1012CC00396A3B6901FA03F31A437B691A603B687C
:1012DC005B6803F08053002B00F0B1804D4B9B6991
:1012EC004C4A43F0010393614A4B9B6903F00103A1
:1012FC00BB60BB68484A7B6A9B08023352F82330B8
:10130C00FB607B6A03F003039B000F2202FA03F3DA
:10131C00DB43FA681340FB607B68404A934213D06E
:10132C007B683F4A93420DD07B683E4A934207D07C
:10133C007B683D4A934201D1032306E0042304E079
:10134C00022302E0012300E000237A6A02F0030288
:10135C0092009340FA681343FB602F497B6A9B0809
:10136C000233FA6841F823203B685B6803F480136E
:10137C00002B06D02D4B9A682C49BB6913438B600C
:10138C0006E02A4B9A68BB69DB43284913408B6003
:10139C003B685B6803F40013002B06D0234BDA6820
:1013AC002249BB691343CB6006E0204BDA68BB696A
:1013BC00DB431E491340CB603B685B6803F400338E
:1013CC00002B06D0194B5A681849BB6913434B6064
:1013DC0006E0164B5A68BB69DB43144913404B605B
:1013EC003B685B6803F48033002B21D00F4B1A68E9
:1013FC000E49BB6913430B6021E000BF00003210A3
:10140C00000031100000221000002110000012100A
:10141C0000001110001002400000014000080140C3
:10142C00000C014000100140001401400004014078
:10143C000B4B1A68BB69DB43094913400B607B6A91
:10144C0001337B623B681A687B6A22FA03F3002B38
:10145C007FF48EAE00BF00BF2C37BD4680BC7047FA
:10146C000004014080B483B000AF78600B467B80F1
:10147C0013467B707B78002B03D07A887B681A61CB
:10148C0003E07B881A047B681A6100BF0C37BD46E9
:10149C0080BC704780B584B000AF78607B68002B4F
:1014AC0001D101232BE17B6893F83D30DBB2002B9B
:1014BC0006D17B68002283F83C207868FEF7F2FEA8
:1014CC007B68242283F83D207B681B681A687B6844
:1014DC001B6822F001021A607B681B681A687B6823
:1014EC001B6842F400421A607B681B681A687B68B0
:1014FC001B6822F400421A6000F0DAFCF8607B688A
:10150C005B68814A934207D8FB68804A934294BF38
:10151C0001230023DBB206E0FB687D4A934294BFB3
:10152C0001230023DBB2002B01D00123E7E0FB6891
:10153C00784AA2FB03239B0CBB607B681B685B682F
:10154C0023F03F017B681B68BA680A435A607B68CA
:10155C001B681B6A23F03F017B685B686A4A9342F5
:10156C0002D8BB68013309E0BB684FF4967202FBEA
:10157C0003F3694AA2FB03239B0901337A681268BF
:10158C000B4313627B681B68DB6923F44F4222F028
:10159C00FF027B685B685C498B4219D8FB68591E5B
:1015AC007B685B685B00B1FBF3F3591C40F6FC7382
:1015BC000B40002B0AD0FB68591E7B685B685B00F4
:1015CC00B1FBF3F30133C3F30B0351E004234FE0FE
:1015DC007B689B68002B11D1FB68581E7B6859688F
:1015EC000B465B000B44B0FBF3F30133C3F30B036B
:1015FC00002B0CBF01230023DBB212E0FB68581E4A
:10160C007B6859680B469B000B4499000B44B0FB5C
:10161C00F3F30133C3F30B03002B0CBF01230023A3
:10162C00DBB2002B01D0012322E07B689B68002BEE
:10163C000ED1FB68581E7B6859680B465B000B4447
:10164C00B0FBF3F30133C3F30B0343F400430FE09C
:10165C00FB68581E7B6859680B469B000B4499002D
:10166C000B44B0FBF3F30133C3F30B0343F44043DC
:10167C00796809681343CB617B681B681B6823F08E
:10168C00C0017B68DA697B681B6A1A437B681B683C
:10169C000A431A607B681B689B6823F4034323F09E
:1016AC00FF037A6811697A68D26811437A68126804
:1016BC000B4393607B681B68DB6823F0FF017B683E
:1016CC005A697B689B691A437B681B680A43DA601A
:1016DC007B681B681A687B681B6842F001021A6001
:1016EC007B6800221A647B68202283F83D207B688B
:1016FC0000221A637B68002283F83E2000231846E0
:10170C001037BD4680BD00BFA08601007F841E003F
:10171C00FF083D0083DE1B43D34D621080B586B0BD
:10172C0000AF78607B68002B01D1012372E27B68EB
:10173C001B6803F00103002B00F08780924B5B6861
:10174C0003F00C03042B0CD08F4B5B6803F00C03E1
:10175C00082B12D18C4B5B6803F48033B3F5803FBC
:10176C000BD1894B1B6803F40033002B6CD07B68C6
:10177C005B68002B68D101234CE27B685B68B3F596
:10178C00803F06D1804B1B687F4A43F48033136043
:10179C002EE07B685B68002B0CD17B4B1B687A4A74
:1017AC0023F480331360784B1B68774A23F480232F
:1017BC0013601DE07B685B68B3F5A02F0CD1724BF6
:1017CC001B68714A43F4802313606F4B1B686E4A8D
:1017DC0043F4803313600BE06B4B1B686A4A23F4B1
:1017EC0080331360684B1B68674A23F480231360B3
:1017FC007B685B68002B13D0FFF79EFB386108E019
:10180C00FFF79AFB02463B69D31A642B01D90323D9
:10181C0000E25D4B1B6803F40033002BF0D014E0A6
:10182C00FFF78AFB386108E0FFF786FB02463B694D
:10183C00D31A642B01D90323ECE1534B1B6803F43B
:10184C000033002BF0D100E000BF7B681B6803F075
:10185C000203002B63D04C4B5B6803F00C03002B92
:10186C000BD0494B5B6803F00C03082B1CD1464B87
:10187C005B6803F48033002B16D1434B1B6803F0D9
:10188C000203002B05D07B681B69012B01D00123BF
:10189C00C0E13D4B1B6823F0F8027B685B69DB0001
:1018AC00394913430B603AE07B681B69002B20D04D
:1018BC00364B01221A60FFF73FFB386108E0FFF757
:1018CC003BFB02463B69D31A022B01D90323A1E14E
:1018DC002D4B1B6803F00203002BF0D02A4B1B6826
:1018EC0023F0F8027B685B69DB00274913430B602C
:1018FC0015E0264B00221A60FFF71EFB386108E04A
:10190C00FFF71AFB02463B69D31A022B01D90323BA
:10191C0080E11D4B1B6803F00203002BF0D17B68A8
:10192C001B6803F00803002B3AD07B689B69002BE3
:10193C0019D0174B01221A60FFF7FEFA386108E044
:10194C00FFF7FAFA02463B69D31A022B01D903239B
:10195C0060E10D4B5B6A03F00203002BF0D0012019
:10196C0000F0CEFA1CE00A4B00221A60FFF7E4FAF2
:10197C0038610FE0FFF7E0FA02463B69D31A022BFD
:10198C0008D9032346E100BF001002400000424288
:10199C0080044242924B5B6A03F00203002BE9D1B4
:1019AC007B681B6803F00403002B00F0A680002367
:1019BC00FB758B4BDB6903F08053002B0DD1884BEF
:1019CC00DB69874A43F08053D361854BDB6903F0B5
:1019DC008053BB60BB680123FB75824B1B6803F40F
:1019EC008073002B18D17F4B1B687E4A43F48073A5
:1019FC001360FFF7A1FA386108E0FFF79DFA024681
:101A0C003B69D31A642B01D9032303E1754B1B6883
:101A1C0003F48073002BF0D07B68DB68012B06D1BC
:101A2C006F4B1B6A6E4A43F0010313622DE07B6817
:101A3C00DB68002B0CD16A4B1B6A694A23F001034B
:101A4C001362674B1B6A664A23F0040313621CE0A3
:101A5C007B68DB68052B0CD1614B1B6A604A43F039
:101A6C00040313625E4B1B6A5D4A43F0010313626D
:101A7C000BE05B4B1B6A5A4A23F001031362584B71
:101A8C001B6A574A23F0040313627B68DB68002B44
:101A9C0015D0FFF751FA38610AE0FFF74DFA02460C
:101AAC003B69D31A41F28832934201D90323B1E046
:101ABC004B4B1B6A03F00203002BEED014E0FFF734
:101ACC003BFA38610AE0FFF737FA02463B69D31A52
:101ADC0041F28832934201D903239BE0404B1B6AAD
:101AEC0003F00203002BEED1FB7D012B05D13C4B07
:101AFC00DB693B4A23F08053D3617B68DB69002BA5
:101B0C0000F08780364B5B6803F00C03082B61D028
:101B1C007B68DB69022B46D1334B00221A60FFF73E
:101B2C000BFA386108E0FFF707FA02463B69D31A53
:101B3C00022B01D903236DE0294B1B6803F00073C2
:101B4C00002BF0D17B681B6AB3F5803F08D1244B86
:101B5C005B6823F400327B689B68214913434B601C
:101B6C001F4B5B6823F474127B68196A7B685B6A91
:101B7C000B431B4913434B601B4B01221A60FFF7AD
:101B8C00DBF9386108E0FFF7D7F902463B69D31A55
:101B9C00022B01D903233DE0114B1B6803F00073AA
:101BAC00002BF0D035E0104B00221A60FFF7C4F97F
:101BBC00386108E0FFF7C0F902463B69D31A022BE3
:101BCC0001D9032326E0064B1B6803F00073002B9E
:101BDC00F0D11EE07B68DB69012B07D1012319E0F2
:101BEC000010024000700040600042420B4B5B68EA
:101BFC00FB60FB6803F480327B681B6A9A4206D157
:101C0C00FB6803F470127B685B6A9A4201D0012373
:101C1C0000E0002318461837BD4680BD0010024076
:101C2C0080B584B000AF786039607B68002B01D13F
:101C3C000123D0E06A4B1B6803F007033A689A4211
:101C4C0010D9674B1B6823F0070265493B681343A7
:101C5C000B60634B1B6803F007033A689A4201D090
:101C6C000123B8E07B681B6803F00203002B20D033
:101C7C007B681B6803F00403002B05D0594B5B6891
:101C8C00584A43F4E06353607B681B6803F0080315
:101C9C00002B05D0534B5B68524A43F4605353609E
:101CAC00504B5B6823F0F0027B689B684D491343F3
:101CBC004B607B681B6803F00103002B40D07B68F2
:101CCC005B68012B07D1474B1B6803F40033002BD7
:101CDC0015D101237FE07B685B68022B07D1414B58
:101CEC001B6803F00073002B09D1012373E03D4BFB
:101CFC001B6803F00203002B01D101236BE0394B6D
:101D0C005B6823F003027B685B68364913434B60C6
:101D1C00FFF712F9F8600AE0FFF70EF90246FB68CC
:101D2C00D31A41F28832934201D9032353E02D4B4D
:101D3C005B6803F00C027B685B689B009A42EBD1FA
:101D4C00274B1B6803F007033A689A4210D2244BC6
:101D5C001B6823F0070222493B6813430B60204B9E
:101D6C001B6803F007033A689A4201D0012332E062
:101D7C007B681B6803F00403002B08D0194B5B68CD
:101D8C0023F4E0627B68DB68164913434B607B6885
:101D9C001B6803F00803002B09D0124B5B6823F47B
:101DAC0060527B681B69DB000E4913434B6000F0EB
:101DBC0021F802460B4B5B681B0903F00F030A4921
:101DCC00CB5C22FA03F3094A1360094B1B681846D3
:101DDC00FFF770F8002318461037BD4680BD00BFD2
:101DEC000020024000100240042C000800000020DB
:101DFC000400002080B487B000AF0023FB600023F8
:101E0C00BB6000237B6100237B6000233B611E4B86
:101E1C005B68FB60FB6803F00C03042B02D0082BFF
:101E2C0003D027E0194B3B6127E0FB689B0C03F0C8
:101E3C000F03174AD35C7B60FB6803F48033002BE1
:101E4C0010D0114B5B685B0C03F00103114AD35C9F
:101E5C00BB607B680D4A03FB02F2BB68B2FBF3F379
:101E6C007B6104E07B680C4A02FB03F37B617B69BA
:101E7C003B6102E0054B3B6100BF3B6918461C37D8
:101E8C00BD4680BC704700BF0010024000127A00B3
:101E9C00243000083430000800093D0080B400AF45
:101EAC00024B1B681846BD4680BC704700000020E2
:101EBC0080B500AFFFF7F2FF0246054B5B681B0ACB
:101ECC0003F007030349CB5C22FA03F3184680BDE9
:101EDC0000100240142C000880B500AFFFF7DEFFA5
:101EEC000246054B5B68DB0A03F007030349CB5C36
:101EFC0022FA03F3184680BD00100240142C00088F
:101F0C0080B485B000AF78600A4B1B680A4AA2FB0C
:101F1C0003235B0A7A6802FB03F3FB6000BFFB68D8
:101F2C005A1EFA60002BF9D100BF00BF1437BD4612
:101F3C0080BC704700000020D34D621080B582B089
:101F4C0000AF78607B68002B01D1012376E07B68C1
:101F5C005B6A002B08D17B685B68B3F5827F09D084
:101F6C007B680022DA6105E07B6800221A617B68DD
:101F7C0000225A617B6800229A627B6893F8513088
:101F8C00DBB2002B06D17B68002283F850207868E6
:101F9C00FEF7A4FA7B68022283F851207B681B6849
:101FAC001A687B681B6822F040021A607B685B68C9
:101FBC0003F482727B689B6803F404431A437B68C6
:101FCC00DB6803F400631A437B681B6903F00203AC
:101FDC001A437B685B6903F001031A437B689B69B6
:101FEC0003F400731A437B68DB6903F038031A436C
:101FFC007B681B6A03F0800342EA03017B689B6ADF
:10200C0003F400527B681B680A431A607B689B6967
:10201C001A0C7B681B6802F004025A607B681B6810
:10202C00DA697B681B6822F40062DA617B68002243
:10203C005A657B68012283F8512000231846083723
:10204C00BD4680BD80B582B000AF78607B68002B48
:10205C0001D1012342E07B6893F84130DBB2002BC5
:10206C0006D17B68002283F840207868FEF7EAFBF3
:10207C007B68242283F841207B681B68DA687B68C4
:10208C001B6822F40052DA60786800F02BF87B6849
:10209C001B681A697B681B6822F490421A617B6882
:1020AC001B685A697B681B6822F02A025A617B689C
:1020BC001B68DA687B681B6842F40052DA607B6844
:1020CC0000225A647B68202283F841207B682022FE
:1020DC0083F842207B6800225A6300231846083795
:1020EC00BD4680BD80B584B000AF78607B681B684E
:1020FC001B6923F440517B68DA687B681B680A43D0
:10210C001A617B689A687B681B691A437B685B69F8
:10211C001343BB607B681B68DB6823F4B05323F06C
:10212C000C037A681268B9680B43D3607B681B6830
:10213C005B6923F440717B689A697B681B680A436E
:10214C005A617B681B682C4A934203D1FFF7C4FE8B
:10215C00F86002E0FFF7ACFEF860FA6813469B00EB
:10216C0013449A001A447B685B689B00B2FBF3F340
:10217C00224AA2FB03235B091901FA6813469B0050
:10218C0013449A001A447B685B689B00B2FBF3F221
:10219C001A4BA3FB02035B09642000FB03F3D31A65
:1021AC001B013233154AA2FB03235B0903F0F00336
:1021BC001944FA6813469B0013449A001A447B682E
:1021CC005B689B00B2FBF3F20C4BA3FB02035B09B5
:1021DC00642000FB03F3D31A1B013233074AA2FB22
:1021EC0003235B0903F00F027B681B680A449A60A7
:1021FC0000BF1037BD4680BD003801401F85EB5134
:10220C00024B0146186800F025B800BF18000020EA
:10221C0070B50F4E0C463168054611B900F0DAFA6C
:10222C0030602146284600F0D5FA431C03D14FF00C
:10223C00FF34204670BDC41C24F00304A042F8D027
:10224C00211A284600F0C6FA0130F2D1EFE700BFA0
:10225C00F00100202DE9F843CD1C25F003050835CD
:10226C000C2D38BF0C25002D064601DBA94204D9E4
:10227C000C2333600020BDE8F883DFF8D48000F035
:10228C0069F8D8F800301C4644BB29463046FFF7A5
:10229C00BFFF431C044658D1D8F800402746002FF6
:1022AC0043D1002C4BD023683946304604EB03094C
:1022BC0000F090FA814542D1216830466D1A2946CA
:1022CC00FFF7A6FF01303AD023682B442360D8F8DF
:1022DC0000305A6862BBC8F800700FE02268521BCD
:1022EC0020D40B2A17D96119A342256018BF596055
:1022FC00636808BFC8F8001062514B60304600F0AC
:10230C002FF804F10B00231D20F00700C21A1CBF8C
:10231C001B1AA350AFE76268A3420CBFC8F8002099
:10232C005A60EBE723466468AEE73C467F68B6E745
:10233C001A465B68A342FBD100235360DEE70C23F3
:10234C003046336000F00CF894E70560D6E700BF28
:10235C00F4010020014800F08ABA00BF38030020C5
:10236C00014800F085BA00BF38030020002310B5E7
:10237C000446C0E90033C0E90433836081814366BD
:10238C00C2818361194608225C3000F0E7F90D4BDD
:10239C00246263620C4BA3620C4BE3620C4B236311
:1023AC000C4B9C4206D003F16802944202D0D0330D
:1023BC009C4205D104F15800BDE8104000F056BA1B
:1023CC0010BD00BFB9250008DB2500081326000846
:1023DC0037260008F8010020024A0349034800F0A0
:1023EC0069B800BF0C000020112A00081C00002056
:1023FC0041680C4B10B59942044601D000F002FB29
:10240C00A168094B994202D0204600F0FBFAE16822
:10241C00064B994204D02046BDE8104000F0F2BAB9
:10242C0010BD00BFF801002060020020C80200208F
:10243C0010B50B4B0B4C0C4A20461A6004210022A1
:10244C00FFF794FF04F1680001220921FFF78EFFCA
:10245C0004F1D0000222BDE810401221FFF786BF24
:10246C0030030020F8010020E5230008014800F0AB
:10247C00FEB900BF39030020014800F0F9B900BFD4
:10248C003903002010B50446FFF7F0FF236A1BB197
:10249C00BDE81040FFF7F0BF044B2362044B1B68F0
:1024AC00002BF5D1FFF7C4FFF2E700BFFD230008B6
:1024BC00300300202DE9F8430746884614460026D1
:1024CC00D4E90195B9F1010905D52468002CF7D19F
:1024DC003046BDE8F883AB89012B07D9B5F90E302E
:1024EC00013303D029463846C04706436835E9E72F
:1024FC00036A70B505460E4684680BB9FFF7C2FF38
:10250C00636EDB0705D4A389980502D4A06D00F097
:10251C00AEF9A389190702D52369002B35D12146C1
:10252C00284600F0C5F880B34FF0FF35636EDA072C
:10253C0005D4A3899B0502D4A06D00F099F9284617
:10254C0070BD002B04DAA2699A4217DC0A2915D057
:10255C0023685A1C22601970A36816F8011F013BEE
:10256C00A3600029EDD1002B11DA22460A2128465E
:10257C0000F05FF80130D7D00A25D7E7224628466D
:10258C0000F057F80130E7D1CEE7013EE4E72368CD
:10259C005A1C22600A221A70EEE70000024B014618
:1025AC001868FFF7A5BF00BF1800002010B50C4637
:1025BC00B1F90E1000F0FCF80028ABBF636DA389D5
:1025CC001B1823F48053ACBF6365A38110BD2DE9A8
:1025DC00F0411F468B890546DB050C46164605D592
:1025EC0002230022B1F90E1000F0D0F8A389324674
:1025FC0023F48053A38128463B46B4F90E10BDE862
:10260C00F04100F0F7B810B50C46B1F90E1000F01F
:10261C00BDF8431CA38915BF606523F4805343F4B4
:10262C008053A38118BFA38110BDB1F90E1000F027
:10263C009DB8F8B50E461446054618B1036A0BB999
:10264C00FFF720FFA369A360A3891A0701D52369AB
:10265C0043B92146284600F02BF818B14FF0FF374C
:10266C003846F8BD23682269F6B2981A6369374672
:10267C00834205DC2146284600F0C4F90028EDD140
:10268C00A368013BA36023685A1C22601E70626918
:10269C00431C9A4204D0A389DB07E1D50A2EDFD173
:1026AC002146284600F0AEF90028D9D0D6E7000024
:1026BC0038B5294B054618680C4618B1036A0BB996
:1026CC00FFF7E0FEB4F90C30190722D4DA0607D470
:1026DC0009222A6043F040034FF0FF30A38133E01E
:1026EC00580712D5616B41B104F14403994202D0F1
:1026FC00284600F0BFF800236363A38923F024036A
:10270C00A3810023636023692360A38943F008033A
:10271C00A38123694BB9A38903F42073B3F5007F1C
:10272C0003D02146284600F0BAF9B4F90C3013F066
:10273C0001020AD00022A26062695242A26122699F
:10274C0042B913F08000C5D138BD990758BF6269F2
:10275C00A260F4E70020F7E71800002003460244CB
:10276C00934200D1704703F8011BF9E738B50023F9
:10277C00054D044608462B60FDF7CDFF431C02D1E6
:10278C002B6803B1236038BD3403002038B50446F0
:10279C00084611460022054D2A601A46FDF7DFFF58
:1027AC00431C02D12B6803B1236038BD34030020D5
:1027BC0038B50446084611460022054D2A601A46D3
:1027CC00FDF770FF431C02D12B6803B1236038BDA9
:1027DC003403002038B50023054D044608462B6011
:1027EC00FDF7CAFF431C02D12B6803B1236038BD2F
:1027FC003403002038B50446084611460022054D26
:10280C002A601A46FDF76BFF431C02D12B6803B1FB
:10281C00236038BD34030020014B1868704700BF9B
:10282C001800002070B500260C4D0D4C641BA41034
:10283C00A64209D100F092F900260A4D0A4C641BFD
:10284C00A410A64205D170BD55F8043B984701363B
:10285C00EEE755F8043B98470136F2E738300008AC
:10286C0038300008383000083C300008704770479A
:10287C007047000038B50546002940D051F8043C9B
:10288C000C1F002BB8BFE418FFF764FD1C4A13683B
:10289C0033B9636014602846BDE83840FFF760BD6B
:1028AC00A34208D9206821188B4201BF19685B68C4
:1028BC0009182160EDE71A465B680BB1A342FAD9FF
:1028CC0011685018A0420BD1206801445018834263
:1028DC001160E0D118685B68084410605360DAE757
:1028EC0002D90C232B60D6E7206821188B4201BF3C
:1028FC0019685B680918216063605460CBE738BDC8
:10290C00F4010020B1F90C20F8B5160705460C4669
:10291C0054D44B68002B02DC0B6C002B48DDE66AB0
:10292C00002E45D0002312F480522F68216A2B60B0
:10293C0030D0626DA389590705D56368D21A636BD1
:10294C000BB1236CD21A00232846E66A216AB047E1
:10295C00431CA38906D129681D292BD8284A0A4172
:10296C00D60727D4002262602269D904226004D5DC
:10297C00421C01D12B6803B96065616B2F60B9B142
:10298C0004F14403994202D02846FFF773FF002359
:10299C0063630DE001232846B0470246501CC9D1A1
:1029AC002B68002BC6D01D2B01D0162B1DD12F60F0
:1029BC00002021E043F040031BB21AE00F69002F06
:1029CC00F6D0930718BF00230E6808BF4B69F61B9F
:1029DC000F608B60002EEBDD33463A462846216AA9
:1029EC00D4F828C0E047002807DCB4F90C3043F0D9
:1029FC0040034FF0FF30A381F8BD0744361AE9E7D6
:102A0C00FEFFBFDF38B50B6905460C4613B9002530
:102A1C00284638BD18B1036A0BB9FFF733FDB4F97A
:102A2C000C30002BF3D0626ED00704D4990502D47D
:102A3C00A06DFFF71CFF28462146FFF763FF636E6E
:102A4C000546DA07E4D4A3899B05E1D4A06DFFF712
:102A5C000FFFDDE770B50C46B1F90E1015460029D5
:102A6C001E4696B00CDAA389002113F0800F14BF18
:102A7C0040234FF48063002031602B6016B070BD92
:102A8C006A4600F049F80028EDDB019901F4704129
:102A9C00A1F50053594259414FF48063EBE78B8900
:102AAC00F7B59D0706460C4607D504F1470323608E
:102ABC0023610123636103B0F0BD6A4601ABFFF7EC
:102ACC00C9FF009F054639463046FFF7C3FB48B99E
:102ADC00B4F90C309A05EED423F0030343F002034F
:102AEC00A381E2E7A389C4E9040743F08003A3812F
:102AFC00019B20605BB13046B4F90E1000F01EF85B
:102B0C0028B1A38923F0030343F00103A381A38914
:102B1C001D43A581CFE7000038B50023064D0446C0
:102B2C00084611462B60FDF701FE431C02D12B68B1
:102B3C0003B1236038BD00BF3403002038B5002337
:102B4C00054D044608462B60FDF7FFFD431C02D1E2
:102B5C002B6803B1236038BD34030020F8B500BFE7
:102B6C00F8BC08BC9E467047F8B500BFF8BC08BC62
:042B7C009E467047BA
:102B80005553455F5350495F34570D0073656E646C
:102B9000206572726F720D00312E33696E6368208A
:102BA0004F4C454420746573742064656D6F00005C
:102BB0004F4C454420496E69742E2E2E0D000000A6
:102BC0004661696C656420746F206170706C792057
:102BD000666F7220626C61636B206D656D6F7279D8
:102BE0002E2E2E0D000000005061696E745F4E6540
:102BF00077496D6167650D0044726177696E670D95
:102C000000000000000000000000000001020304BA
:102C1000060708090000000001020304000000008C
:102C200000000000000000000000000000000000A4
:102C30000000000000000000000000000000000094
:102C40000000000000000000000000000000000084
:102C50000000000000000000000000000000000074
:102C60000000000000000000000000000000000064
:102C70000000000000000000000000000000000054
:102C80000000000000000000000000000000000044
:102C90000000000000000000000000000000000034
:102CA0000000000000000000000000000000000024
:102CB0000000000000000000000000000000000014
:102CC0000000000000000000000000000000000004
:102CD0000000000080808080800000000000000074
:102CE00000000000000000000000000000000000E4
:102CF00000000000000000000000000000000000D4
:102D000000000000000000000000000000000000C3
:102D100000000000000000000000000000000000B3
:102D200000000000000000000000000000000000A3
:102D30000000000000000000000000000080804053
:102D40004020201010080C040404020202020202B7
:102D500001010101000000C0601F00000000000030
:102D600000000000000000000000000080808000E3
:102D70000000000000000000000000000000000053
:102D80000000000000000000000000000000000043
:102D90000000000000000000000000000000000033
:102DA0000000000000000000000000000000000023
:102DB000000080402010080406020201010000000B
:102DC0000000000000000000000000000000000003
:102DD000008040A0984442202020101010080808CD
:102DE000040402020202010181C12111090601004D
:102DF0000000000000000080808080808040404013
:102E00004040404040404040404040C0C0C0404042
:102E100000000000000000000000000000000000B2
:102E2000000000000000000000000000000000089A
:102E30000C03000000000000000000000000000083
:102E4000000000000000000000000000000C06066A
:102E5000030101000000000000000000000000006D
:102E600000000008080C0A09040404040404828217
:102E700082824141414121201010101008080808A9
:102E80000404040402020101010101000000000029
:102E90000000000000000000000000000000000032
:102EA0000000000000000000000000000000000022
:102EB0000000000000000000000000000000000012
:102EC0000000000000000000000000000000000002
:102ED00000000000000000000000000000000000F2
:102EE00000000000000000000000000000000000E2
:102EF00000000000000000000000000000000000D2
:102F000000000000000000000000000000000000C1
:102F100000000000000000000000000000000000B1
:102F200000000000000000000000000000000000A1
:102F30000000000000000000000000000000000091
:102F40000000000000000000000000000000000081
:102F50000000000000000000000000000000000071
:102F60000000000000000000000000000000000061
:102F70000000000000000000000000000000000051
:102F80000000000000000000000000000000000041
:102F90000000000000000000000000000000000031
:102FA0000000000000000000000000000000000021
:102FB0000000000000000000000000000000000011
:102FC0000000000000000000000000000000000001
:102FD00000000000000000000000000000000000F1
:102FE00000000000000000000000000000000000E1
:102FF00000000000000000000000000000000000D1
:1030000000000000000000000000000000000000C0
:1030100000000000000000000000000000000000B0
:103020000000000002030405060708090A0B0C0D46
:083030000E0F10100102000058
:04303800310100085A
:04303C000D0100087A
:103040000024F40010000000010000000000000057
:1030500003000000F80100201C0000200000000018
:10306000F801002060020020C802002000000000DB
:103070000000000000000000000000000000000050
:103080000000000000000000000000000000000040
:103090000000000000000000000000000000000030
:0830A000000000000000000028
:04000005080008E502
:00000001FF
